{
  "contractName": "VouchersRegistry",
  "abi": [
    {
      "constant": true,
      "inputs": [
        {
          "name": "",
          "type": "address"
        }
      ],
      "name": "safetyCheckPassedContracts",
      "outputs": [
        {
          "name": "",
          "type": "uint256"
        }
      ],
      "payable": false,
      "stateMutability": "view",
      "type": "function"
    },
    {
      "constant": true,
      "inputs": [
        {
          "name": "",
          "type": "address"
        }
      ],
      "name": "safetyCheckFailedContracts",
      "outputs": [
        {
          "name": "",
          "type": "uint256"
        }
      ],
      "payable": false,
      "stateMutability": "view",
      "type": "function"
    },
    {
      "constant": true,
      "inputs": [
        {
          "name": "",
          "type": "bytes32"
        }
      ],
      "name": "contractVouchersDonorBalance",
      "outputs": [
        {
          "name": "",
          "type": "uint256"
        }
      ],
      "payable": false,
      "stateMutability": "view",
      "type": "function"
    },
    {
      "constant": false,
      "inputs": [],
      "name": "renounceOwnership",
      "outputs": [],
      "payable": false,
      "stateMutability": "nonpayable",
      "type": "function"
    },
    {
      "constant": true,
      "inputs": [],
      "name": "owner",
      "outputs": [
        {
          "name": "",
          "type": "address"
        }
      ],
      "payable": false,
      "stateMutability": "view",
      "type": "function"
    },
    {
      "constant": true,
      "inputs": [],
      "name": "isOwner",
      "outputs": [
        {
          "name": "",
          "type": "bool"
        }
      ],
      "payable": false,
      "stateMutability": "view",
      "type": "function"
    },
    {
      "constant": true,
      "inputs": [
        {
          "name": "",
          "type": "bytes32"
        }
      ],
      "name": "contractVouchersRedeemablePerUser",
      "outputs": [
        {
          "name": "",
          "type": "uint256"
        }
      ],
      "payable": false,
      "stateMutability": "view",
      "type": "function"
    },
    {
      "constant": true,
      "inputs": [
        {
          "name": "",
          "type": "address"
        }
      ],
      "name": "addressIdentityVerified",
      "outputs": [
        {
          "name": "",
          "type": "uint256"
        }
      ],
      "payable": false,
      "stateMutability": "view",
      "type": "function"
    },
    {
      "constant": true,
      "inputs": [
        {
          "name": "",
          "type": "bytes32"
        }
      ],
      "name": "contractVouchersAddressRedeemed",
      "outputs": [
        {
          "name": "",
          "type": "uint256"
        }
      ],
      "payable": false,
      "stateMutability": "view",
      "type": "function"
    },
    {
      "constant": false,
      "inputs": [
        {
          "name": "newOwner",
          "type": "address"
        }
      ],
      "name": "transferOwnership",
      "outputs": [],
      "payable": false,
      "stateMutability": "nonpayable",
      "type": "function"
    },
    {
      "anonymous": false,
      "inputs": [
        {
          "indexed": false,
          "name": "refundee",
          "type": "address"
        },
        {
          "indexed": false,
          "name": "refundAmount",
          "type": "uint256"
        }
      ],
      "name": "AddressNotPassedSafetyCheckRefund",
      "type": "event"
    },
    {
      "anonymous": false,
      "inputs": [
        {
          "indexed": true,
          "name": "previousOwner",
          "type": "address"
        },
        {
          "indexed": true,
          "name": "newOwner",
          "type": "address"
        }
      ],
      "name": "OwnershipTransferred",
      "type": "event"
    },
    {
      "constant": false,
      "inputs": [
        {
          "name": "contractAddress",
          "type": "address"
        },
        {
          "name": "status",
          "type": "string"
        },
        {
          "name": "checkVersion",
          "type": "uint256"
        }
      ],
      "name": "setContractStatus",
      "outputs": [],
      "payable": false,
      "stateMutability": "nonpayable",
      "type": "function"
    },
    {
      "constant": false,
      "inputs": [
        {
          "name": "contractAddress",
          "type": "address"
        },
        {
          "name": "redeemablePerUser",
          "type": "uint256"
        }
      ],
      "name": "addContractVouchers",
      "outputs": [],
      "payable": true,
      "stateMutability": "payable",
      "type": "function"
    },
    {
      "constant": false,
      "inputs": [
        {
          "name": "contractAddress",
          "type": "address"
        },
        {
          "name": "withdrawAmount",
          "type": "uint256"
        }
      ],
      "name": "withdrawContractVouchers",
      "outputs": [],
      "payable": false,
      "stateMutability": "nonpayable",
      "type": "function"
    }
  ],
  "bytecode": "0x6080604052336000806101000a81548173ffffffffffffffffffffffffffffffffffffffff021916908373ffffffffffffffffffffffffffffffffffffffff1602179055506000809054906101000a900473ffffffffffffffffffffffffffffffffffffffff1673ffffffffffffffffffffffffffffffffffffffff16600073ffffffffffffffffffffffffffffffffffffffff167f8be0079c531659141344cd1fd0a4f28419497f9722a3daafe3b4186f6b6457e060405160405180910390a3610ed7806100cf6000396000f3006080604052600436106100c5576000357c0100000000000000000000000000000000000000000000000000000000900463ffffffff16806301955241146100ca5780632ada256b1461012157806333342d66146101785780633a525bf3146101bd578063715018a61461020a5780638da5cb5b146102215780638f32d59b146102785780639e7a4c41146102a7578063a9543e2b1461033a578063b097a02d1461037f578063d0bacbbc146103bf578063ee6ef28214610416578063f2fde38b1461045b575b600080fd5b3480156100d657600080fd5b5061010b600480360381019080803573ffffffffffffffffffffffffffffffffffffffff16906020019092919050505061049e565b6040518082815260200191505060405180910390f35b34801561012d57600080fd5b50610162600480360381019080803573ffffffffffffffffffffffffffffffffffffffff1690602001909291905050506104b6565b6040518082815260200191505060405180910390f35b34801561018457600080fd5b506101a760048036038101908080356000191690602001909291905050506104ce565b6040518082815260200191505060405180910390f35b3480156101c957600080fd5b50610208600480360381019080803573ffffffffffffffffffffffffffffffffffffffff169060200190929190803590602001909291905050506104e6565b005b34801561021657600080fd5b5061021f6106a0565b005b34801561022d57600080fd5b50610236610772565b604051808273ffffffffffffffffffffffffffffffffffffffff1673ffffffffffffffffffffffffffffffffffffffff16815260200191505060405180910390f35b34801561028457600080fd5b5061028d61079b565b604051808215151515815260200191505060405180910390f35b3480156102b357600080fd5b50610338600480360381019080803573ffffffffffffffffffffffffffffffffffffffff169060200190929190803590602001908201803590602001908080601f0160208091040260200160405190810160405280939291908181526020018383808284378201915050505050509192919290803590602001909291905050506107f2565b005b34801561034657600080fd5b5061036960048036038101908080356000191690602001909291905050506108bc565b6040518082815260200191505060405180910390f35b6103bd600480360381019080803573ffffffffffffffffffffffffffffffffffffffff169060200190929190803590602001909291905050506108d4565b005b3480156103cb57600080fd5b50610400600480360381019080803573ffffffffffffffffffffffffffffffffffffffff169060200190929190505050610a99565b6040518082815260200191505060405180910390f35b34801561042257600080fd5b506104456004803603810190808035600019169060200190929190505050610ab1565b6040518082815260200191505060405180910390f35b34801561046757600080fd5b5061049c600480360381019080803573ffffffffffffffffffffffffffffffffffffffff169060200190929190505050610ac9565b005b60016020528060005260406000206000915090505481565b60026020528060005260406000206000915090505481565b60036020528060005260406000206000915090505481565b60008060003392508285604051602001808373ffffffffffffffffffffffffffffffffffffffff1673ffffffffffffffffffffffffffffffffffffffff166c010000000000000000000000000281526014018273ffffffffffffffffffffffffffffffffffffffff1673ffffffffffffffffffffffffffffffffffffffff166c01000000000000000000000000028152601401925050506040516020818303038152906040526040518082805190602001908083835b6020831015156105c1578051825260208201915060208101905060208303925061059c565b6001836020036101000a0380198251168184511680821785525050505050509050019150506040518091039020915060036000836000191660001916815260200190815260200160002054905083811015801561061e5750600084115b151561062957600080fd5b6106338185610ae8565b600360008460001916600019168152602001908152602001600020819055503373ffffffffffffffffffffffffffffffffffffffff166108fc859081150290604051600060405180830381858888f19350505050158015610698573d6000803e3d6000fd5b505050505050565b6106a861079b565b15156106b357600080fd5b600073ffffffffffffffffffffffffffffffffffffffff166000809054906101000a900473ffffffffffffffffffffffffffffffffffffffff1673ffffffffffffffffffffffffffffffffffffffff167f8be0079c531659141344cd1fd0a4f28419497f9722a3daafe3b4186f6b6457e060405160405180910390a360008060006101000a81548173ffffffffffffffffffffffffffffffffffffffff021916908373ffffffffffffffffffffffffffffffffffffffff160217905550565b60008060009054906101000a900473ffffffffffffffffffffffffffffffffffffffff16905090565b60008060009054906101000a900473ffffffffffffffffffffffffffffffffffffffff1673ffffffffffffffffffffffffffffffffffffffff163373ffffffffffffffffffffffffffffffffffffffff1614905090565b6107fa61079b565b151561080557600080fd5b60008111151561081457600080fd5b610853826040805190810160405280601181526020017f736166657479436865636b506173736564000000000000000000000000000000815250610b09565b15610867576108628382610be2565b6108b7565b6108a6826040805190810160405280601181526020017f736166657479436865636b4661696c6564000000000000000000000000000000815250610b09565b156108b6576108b58382610cb9565b5b5b505050565b60056020528060005260406000206000915090505481565b600080600080600160008773ffffffffffffffffffffffffffffffffffffffff1673ffffffffffffffffffffffffffffffffffffffff1681526020019081526020016000205411151561092657600080fd5b3392508285604051602001808373ffffffffffffffffffffffffffffffffffffffff1673ffffffffffffffffffffffffffffffffffffffff166c010000000000000000000000000281526014018273ffffffffffffffffffffffffffffffffffffffff1673ffffffffffffffffffffffffffffffffffffffff166c01000000000000000000000000028152601401925050506040516020818303038152906040526040518082805190602001908083835b6020831015156109fc57805182526020820191506020810190506020830392506109d7565b6001836020036101000a03801982511681845116808217855250505050505090500191505060405180910390209150600360008360001916600019168152602001908152602001600020549050610a538134610d90565b6003600084600019166000191681526020019081526020016000208190555083600560008460001916600019168152602001908152602001600020819055505050505050565b60066020528060005260406000206000915090505481565b60046020528060005260406000206000915090505481565b610ad161079b565b1515610adc57600080fd5b610ae581610db1565b50565b600080838311151515610afa57600080fd5b82840390508091505092915050565b6000816040518082805190602001908083835b602083101515610b415780518252602082019150602081019050602083039250610b1c565b6001836020036101000a038019825116818451168082178552505050505050905001915050604051809103902060001916836040518082805190602001908083835b602083101515610ba85780518252602082019150602081019050602083039250610b83565b6001836020036101000a03801982511681845116808217855250505050505090500191505060405180910390206000191614905092915050565b80600160008473ffffffffffffffffffffffffffffffffffffffff1673ffffffffffffffffffffffffffffffffffffffff168152602001908152602001600020819055506000600260008473ffffffffffffffffffffffffffffffffffffffff1673ffffffffffffffffffffffffffffffffffffffff16815260200190815260200160002054141515610cb5576000600260008473ffffffffffffffffffffffffffffffffffffffff1673ffffffffffffffffffffffffffffffffffffffff168152602001908152602001600020819055505b5050565b80600260008473ffffffffffffffffffffffffffffffffffffffff1673ffffffffffffffffffffffffffffffffffffffff168152602001908152602001600020819055506000600160008473ffffffffffffffffffffffffffffffffffffffff1673ffffffffffffffffffffffffffffffffffffffff16815260200190815260200160002054141515610d8c576000600160008473ffffffffffffffffffffffffffffffffffffffff1673ffffffffffffffffffffffffffffffffffffffff168152602001908152602001600020819055505b5050565b6000808284019050838110151515610da757600080fd5b8091505092915050565b600073ffffffffffffffffffffffffffffffffffffffff168173ffffffffffffffffffffffffffffffffffffffff1614151515610ded57600080fd5b8073ffffffffffffffffffffffffffffffffffffffff166000809054906101000a900473ffffffffffffffffffffffffffffffffffffffff1673ffffffffffffffffffffffffffffffffffffffff167f8be0079c531659141344cd1fd0a4f28419497f9722a3daafe3b4186f6b6457e060405160405180910390a3806000806101000a81548173ffffffffffffffffffffffffffffffffffffffff021916908373ffffffffffffffffffffffffffffffffffffffff160217905550505600a165627a7a723058203d873a6ee081524a9d735ddbef03bfd26c50c8c7637939b0ba74c131f9a5d10e0029",
  "source": "pragma solidity ^0.4.24;\r\n\r\nimport './openzeppelin-solidity/contracts/ownership/Ownable.sol';\r\nimport './openzeppelin-solidity/contracts/math/SafeMath.sol';\r\n\r\ncontract VouchersRegistry is Ownable{\r\n    \r\n    string constant SAFETY_CHECK_PASSED = \"safetyCheckPassed\";\r\n    string constant SAFETY_CHECK_FAILED = \"safetyCheckFailed\";\r\n    \r\n    mapping(address => uint) public safetyCheckPassedContracts;\r\n    mapping(address => uint) public safetyCheckFailedContracts;\r\n    \r\n    mapping(bytes32 => uint) public contractVouchersDonorBalance;\r\n    mapping(bytes32 => uint) public contractVouchersAddressRedeemed;\r\n    mapping(bytes32 => uint) public contractVouchersRedeemablePerUser;\r\n    \r\n    mapping(address => uint) public addressIdentityVerified;\r\n    \r\n    //uint refundGasFee = 0;\r\n    //mapping(address => uint) public pendingRefunds;\r\n    \r\n    function setContractStatus(address contractAddress, string status, uint checkVersion) public onlyOwner {\r\n        require(checkVersion > 0);\r\n        \r\n        if(stringsEquivelant(status, SAFETY_CHECK_PASSED))\r\n            SetSafetyCheckPassed(contractAddress,checkVersion);\r\n        else if(stringsEquivelant(status, SAFETY_CHECK_FAILED))\r\n            SetSafetyCheckFailed(contractAddress,checkVersion);\r\n    }\r\n    \r\n    function SetSafetyCheckPassed(address contractAddress, uint checkVersion) internal{\r\n        safetyCheckPassedContracts[contractAddress] = checkVersion;\r\n        if(safetyCheckFailedContracts[contractAddress] != 0)\r\n            safetyCheckFailedContracts[contractAddress] = 0;\r\n    }\r\n    \r\n    function SetSafetyCheckFailed(address contractAddress, uint checkVersion) internal{\r\n        safetyCheckFailedContracts[contractAddress] = checkVersion;\r\n        if(safetyCheckPassedContracts[contractAddress] != 0)\r\n            safetyCheckPassedContracts[contractAddress] = 0;\r\n    }\r\n    \r\n    function stringsEquivelant (string a, string b) internal pure returns (bool){\r\n       return keccak256(bytes(a)) == keccak256(bytes(b));\r\n    }\r\n    \r\n    event AddressNotPassedSafetyCheckRefund(address refundee, uint refundAmount);\r\n    \r\n    function addContractVouchers(address contractAddress, uint redeemablePerUser) public payable {\r\n        \r\n\t\t\r\n\t\t/*\r\n\t\tif(safetyCheckPassedContracts[contractAddress] == 0) {\r\n            uint refundAmount = 0;\r\n            \r\n            if(msg.value > refundGasFee) {\r\n                refundAmount = SafeMath.sub(msg.value, refundGasFee);\r\n                pendingRefunds[msg.sender] += refundAmount;\r\n            }\r\n            \r\n            emit AddressNotPassedSafetyCheckRefund(msg.sender, refundAmount);\r\n            return;\r\n        }\r\n\t\t*/\r\n\t\t\r\n\t\t//Commented out functionality is un-needed if we revert here, as it will automatically return ether to the sending account.\r\n\t\t//No gas fee deduction should be needed for this function, as it is directly called by the sending account, and is not proxy-called by the admin.\r\n\t\trequire(safetyCheckPassedContracts[contractAddress] > 0);\r\n        \r\n        address donorAddress = msg.sender;\r\n        bytes32 voucherKey = keccak256(abi.encodePacked(donorAddress, contractAddress));\r\n        \r\n        uint currentBalance = contractVouchersDonorBalance[voucherKey];\r\n        contractVouchersDonorBalance[voucherKey] = SafeMath.add(currentBalance, msg.value);\r\n        \r\n        contractVouchersRedeemablePerUser[voucherKey] = redeemablePerUser;\r\n    }\r\n    \r\n    /*function claimRefundedEther() public {\r\n        uint amount = pendingRefunds[msg.sender];\r\n        pendingRefunds[msg.sender] = 0;\r\n        msg.sender.transfer(amount);\r\n    }*/\r\n    \r\n    function withdrawContractVouchers(address contractAddress, uint withdrawAmount) public {\r\n        address donorAddress = msg.sender;\r\n        bytes32 voucherKey = keccak256(abi.encodePacked(donorAddress, contractAddress));\r\n        uint currentBalance = contractVouchersDonorBalance[voucherKey];\r\n        \r\n        require(currentBalance >= withdrawAmount && withdrawAmount > 0);\r\n        \r\n        contractVouchersDonorBalance[voucherKey] = SafeMath.sub(currentBalance, withdrawAmount);\r\n        msg.sender.transfer(withdrawAmount);\r\n    }\r\n}",
  "sourcePath": "C:\\Users\\Chance\\Desktop\\trustfund-vouchers\\contracts\\VouchersRegistry.sol",
  "compiler": {
    "name": "solc",
    "version": "0.4.24+commit.e67f0147.Emscripten.clang"
  },
  "schemaVersion": "2.0.1",
  "updatedAt": "2018-10-24T18:32:27.265Z"
}