{
  "contractName": "VouchersRegistry",
  "abi": [
    {
      "constant": false,
      "inputs": [],
      "name": "renounceOwnership",
      "outputs": [],
      "payable": false,
      "stateMutability": "nonpayable",
      "type": "function"
    },
    {
      "constant": true,
      "inputs": [],
      "name": "owner",
      "outputs": [
        {
          "name": "",
          "type": "address"
        }
      ],
      "payable": false,
      "stateMutability": "view",
      "type": "function"
    },
    {
      "constant": true,
      "inputs": [],
      "name": "isOwner",
      "outputs": [
        {
          "name": "",
          "type": "bool"
        }
      ],
      "payable": false,
      "stateMutability": "view",
      "type": "function"
    },
    {
      "constant": false,
      "inputs": [
        {
          "name": "newOwner",
          "type": "address"
        }
      ],
      "name": "transferOwnership",
      "outputs": [],
      "payable": false,
      "stateMutability": "nonpayable",
      "type": "function"
    },
    {
      "anonymous": false,
      "inputs": [
        {
          "indexed": false,
          "name": "refundee",
          "type": "address"
        },
        {
          "indexed": false,
          "name": "refundAmount",
          "type": "uint256"
        }
      ],
      "name": "AddressNotPassedSafetyCheckRefund",
      "type": "event"
    },
    {
      "anonymous": false,
      "inputs": [
        {
          "indexed": true,
          "name": "previousOwner",
          "type": "address"
        },
        {
          "indexed": true,
          "name": "newOwner",
          "type": "address"
        }
      ],
      "name": "OwnershipTransferred",
      "type": "event"
    },
    {
      "constant": false,
      "inputs": [
        {
          "name": "contractAddress",
          "type": "address"
        },
        {
          "name": "status",
          "type": "string"
        },
        {
          "name": "checkVersion",
          "type": "uint256"
        }
      ],
      "name": "setContractStatus",
      "outputs": [],
      "payable": false,
      "stateMutability": "nonpayable",
      "type": "function"
    },
    {
      "constant": false,
      "inputs": [
        {
          "name": "contractAddress",
          "type": "address"
        },
        {
          "name": "redeemablePerUser",
          "type": "uint256"
        }
      ],
      "name": "addContractVouchers",
      "outputs": [],
      "payable": true,
      "stateMutability": "payable",
      "type": "function"
    },
    {
      "constant": false,
      "inputs": [],
      "name": "claimRefundedEther",
      "outputs": [],
      "payable": false,
      "stateMutability": "nonpayable",
      "type": "function"
    },
    {
      "constant": false,
      "inputs": [
        {
          "name": "contractAddress",
          "type": "address"
        },
        {
          "name": "withdrawAmount",
          "type": "uint256"
        }
      ],
      "name": "withdrawContractVouchers",
      "outputs": [],
      "payable": false,
      "stateMutability": "nonpayable",
      "type": "function"
    }
  ],
  "bytecode": "0x60806040526000600755336000806101000a81548173ffffffffffffffffffffffffffffffffffffffff021916908373ffffffffffffffffffffffffffffffffffffffff1602179055506000809054906101000a900473ffffffffffffffffffffffffffffffffffffffff1673ffffffffffffffffffffffffffffffffffffffff16600073ffffffffffffffffffffffffffffffffffffffff167f8be0079c531659141344cd1fd0a4f28419497f9722a3daafe3b4186f6b6457e060405160405180910390a3610dfe806100d46000396000f30060806040526004361061008e576000357c0100000000000000000000000000000000000000000000000000000000900463ffffffff1680633a525bf3146100935780634d60cedf146100e0578063715018a6146100f75780638da5cb5b1461010e5780638f32d59b146101655780639e7a4c4114610194578063b097a02d14610227578063f2fde38b14610267575b600080fd5b34801561009f57600080fd5b506100de600480360381019080803573ffffffffffffffffffffffffffffffffffffffff169060200190929190803590602001909291905050506102aa565b005b3480156100ec57600080fd5b506100f5610464565b005b34801561010357600080fd5b5061010c610537565b005b34801561011a57600080fd5b50610123610609565b604051808273ffffffffffffffffffffffffffffffffffffffff1673ffffffffffffffffffffffffffffffffffffffff16815260200191505060405180910390f35b34801561017157600080fd5b5061017a610632565b604051808215151515815260200191505060405180910390f35b3480156101a057600080fd5b50610225600480360381019080803573ffffffffffffffffffffffffffffffffffffffff169060200190929190803590602001908201803590602001908080601f016020809104026020016040519081016040528093929190818152602001838380828437820191505050505050919291929080359060200190929190505050610689565b005b610265600480360381019080803573ffffffffffffffffffffffffffffffffffffffff16906020019092919080359060200190929190505050610753565b005b34801561027357600080fd5b506102a8600480360381019080803573ffffffffffffffffffffffffffffffffffffffff1690602001909291905050506109f0565b005b60008060003392508285604051602001808373ffffffffffffffffffffffffffffffffffffffff1673ffffffffffffffffffffffffffffffffffffffff166c010000000000000000000000000281526014018273ffffffffffffffffffffffffffffffffffffffff1673ffffffffffffffffffffffffffffffffffffffff166c01000000000000000000000000028152601401925050506040516020818303038152906040526040518082805190602001908083835b6020831015156103855780518252602082019150602081019050602083039250610360565b6001836020036101000a038019825116818451168082178552505050505050905001915050604051809103902091506003600083600019166000191681526020019081526020016000205490508381101580156103e25750600084115b15156103ed57600080fd5b6103f78185610a0f565b600360008460001916600019168152602001908152602001600020819055503373ffffffffffffffffffffffffffffffffffffffff166108fc859081150290604051600060405180830381858888f1935050505015801561045c573d6000803e3d6000fd5b505050505050565b6000600860003373ffffffffffffffffffffffffffffffffffffffff1673ffffffffffffffffffffffffffffffffffffffff1681526020019081526020016000205490506000600860003373ffffffffffffffffffffffffffffffffffffffff1673ffffffffffffffffffffffffffffffffffffffff168152602001908152602001600020819055503373ffffffffffffffffffffffffffffffffffffffff166108fc829081150290604051600060405180830381858888f19350505050158015610533573d6000803e3d6000fd5b5050565b61053f610632565b151561054a57600080fd5b600073ffffffffffffffffffffffffffffffffffffffff166000809054906101000a900473ffffffffffffffffffffffffffffffffffffffff1673ffffffffffffffffffffffffffffffffffffffff167f8be0079c531659141344cd1fd0a4f28419497f9722a3daafe3b4186f6b6457e060405160405180910390a360008060006101000a81548173ffffffffffffffffffffffffffffffffffffffff021916908373ffffffffffffffffffffffffffffffffffffffff160217905550565b60008060009054906101000a900473ffffffffffffffffffffffffffffffffffffffff16905090565b60008060009054906101000a900473ffffffffffffffffffffffffffffffffffffffff1673ffffffffffffffffffffffffffffffffffffffff163373ffffffffffffffffffffffffffffffffffffffff1614905090565b610691610632565b151561069c57600080fd5b6000811115156106ab57600080fd5b6106ea826040805190810160405280601181526020017f736166657479436865636b506173736564000000000000000000000000000000815250610a30565b156106fe576106f98382610b09565b61074e565b61073d826040805190810160405280601181526020017f736166657479436865636b4661696c6564000000000000000000000000000000815250610a30565b1561074d5761074c8382610be0565b5b5b505050565b6000806000806000600160008873ffffffffffffffffffffffffffffffffffffffff1673ffffffffffffffffffffffffffffffffffffffff16815260200190815260200160002054141561087b576000935060075434111561080b576107bb34600754610a0f565b935083600860003373ffffffffffffffffffffffffffffffffffffffff1673ffffffffffffffffffffffffffffffffffffffff168152602001908152602001600020600082825401925050819055505b7f80d2a0dcab51d32f656c664db085692adb4f91d312cfebd9d25da047ef6b69b33385604051808373ffffffffffffffffffffffffffffffffffffffff1673ffffffffffffffffffffffffffffffffffffffff1681526020018281526020019250505060405180910390a16109e8565b3392508286604051602001808373ffffffffffffffffffffffffffffffffffffffff1673ffffffffffffffffffffffffffffffffffffffff166c010000000000000000000000000281526014018273ffffffffffffffffffffffffffffffffffffffff1673ffffffffffffffffffffffffffffffffffffffff166c01000000000000000000000000028152601401925050506040516020818303038152906040526040518082805190602001908083835b602083101515610951578051825260208201915060208101905060208303925061092c565b6001836020036101000a038019825116818451168082178552505050505050905001915050604051809103902091506003600083600019166000191681526020019081526020016000205490506109a88134610cb7565b6003600084600019166000191681526020019081526020016000208190555084600560008460001916600019168152602001908152602001600020819055505b505050505050565b6109f8610632565b1515610a0357600080fd5b610a0c81610cd8565b50565b600080838311151515610a2157600080fd5b82840390508091505092915050565b6000816040518082805190602001908083835b602083101515610a685780518252602082019150602081019050602083039250610a43565b6001836020036101000a038019825116818451168082178552505050505050905001915050604051809103902060001916836040518082805190602001908083835b602083101515610acf5780518252602082019150602081019050602083039250610aaa565b6001836020036101000a03801982511681845116808217855250505050505090500191505060405180910390206000191614905092915050565b80600160008473ffffffffffffffffffffffffffffffffffffffff1673ffffffffffffffffffffffffffffffffffffffff168152602001908152602001600020819055506000600260008473ffffffffffffffffffffffffffffffffffffffff1673ffffffffffffffffffffffffffffffffffffffff16815260200190815260200160002054141515610bdc576000600260008473ffffffffffffffffffffffffffffffffffffffff1673ffffffffffffffffffffffffffffffffffffffff168152602001908152602001600020819055505b5050565b80600260008473ffffffffffffffffffffffffffffffffffffffff1673ffffffffffffffffffffffffffffffffffffffff168152602001908152602001600020819055506000600160008473ffffffffffffffffffffffffffffffffffffffff1673ffffffffffffffffffffffffffffffffffffffff16815260200190815260200160002054141515610cb3576000600160008473ffffffffffffffffffffffffffffffffffffffff1673ffffffffffffffffffffffffffffffffffffffff168152602001908152602001600020819055505b5050565b6000808284019050838110151515610cce57600080fd5b8091505092915050565b600073ffffffffffffffffffffffffffffffffffffffff168173ffffffffffffffffffffffffffffffffffffffff1614151515610d1457600080fd5b8073ffffffffffffffffffffffffffffffffffffffff166000809054906101000a900473ffffffffffffffffffffffffffffffffffffffff1673ffffffffffffffffffffffffffffffffffffffff167f8be0079c531659141344cd1fd0a4f28419497f9722a3daafe3b4186f6b6457e060405160405180910390a3806000806101000a81548173ffffffffffffffffffffffffffffffffffffffff021916908373ffffffffffffffffffffffffffffffffffffffff160217905550505600a165627a7a72305820e90db492ffc6537da3c87536bcbd9c56abf5ef27ea052d58d4686275a1e503f20029",
  "source": "pragma solidity ^0.4.24;\r\n\r\nimport './openzeppelin-solidity/contracts/ownership/Ownable.sol';\r\nimport './openzeppelin-solidity/contracts/math/SafeMath.sol';\r\n\r\ncontract VouchersRegistry is Ownable{\r\n    \r\n    string constant SAFETY_CHECK_PASSED = \"safetyCheckPassed\";\r\n    string constant SAFETY_CHECK_FAILED = \"safetyCheckFailed\";\r\n    \r\n    mapping(address => uint) safetyCheckPassedContracts;\r\n    mapping(address => uint) safetyCheckFailedContracts;\r\n    \r\n    mapping(bytes32 => uint) contractVouchersDonorBalance;\r\n    mapping(bytes32 => uint) contractVouchersAddressRedeemed;\r\n    mapping(bytes32 => uint) contractVouchersRedeemablePerUser;\r\n    \r\n    mapping(address => uint) addressIdentityVerified;\r\n    \r\n    uint refundGasFee = 0;\r\n    mapping(address => uint) pendingRefunds;\r\n    \r\n    function setContractStatus(address contractAddress, string status, uint checkVersion) public onlyOwner {\r\n        require(checkVersion > 0);\r\n        \r\n        if(stringsEquivelant(status, SAFETY_CHECK_PASSED))\r\n            SetSafetyCheckPassed(contractAddress,checkVersion);\r\n        else if(stringsEquivelant(status, SAFETY_CHECK_FAILED))\r\n            SetSafetyCheckFailed(contractAddress,checkVersion);\r\n    }\r\n    \r\n    function SetSafetyCheckPassed(address contractAddress, uint checkVersion) internal{\r\n        safetyCheckPassedContracts[contractAddress] = checkVersion;\r\n        if(safetyCheckFailedContracts[contractAddress] != 0)\r\n            safetyCheckFailedContracts[contractAddress] = 0;\r\n    }\r\n    \r\n    function SetSafetyCheckFailed(address contractAddress, uint checkVersion) internal{\r\n        safetyCheckFailedContracts[contractAddress] = checkVersion;\r\n        if(safetyCheckPassedContracts[contractAddress] != 0)\r\n            safetyCheckPassedContracts[contractAddress] = 0;\r\n    }\r\n    \r\n    function stringsEquivelant (string a, string b) internal pure returns (bool){\r\n       return keccak256(bytes(a)) == keccak256(bytes(b));\r\n    }\r\n    \r\n    event AddressNotPassedSafetyCheckRefund(address refundee, uint refundAmount);\r\n    \r\n    function addContractVouchers(address contractAddress, uint redeemablePerUser) public payable {\r\n        if(safetyCheckPassedContracts[contractAddress] == 0) {\r\n            uint refundAmount = 0;\r\n            \r\n            if(msg.value > refundGasFee) {\r\n                refundAmount = SafeMath.sub(msg.value, refundGasFee);\r\n                pendingRefunds[msg.sender] += refundAmount;\r\n            }\r\n            \r\n            emit AddressNotPassedSafetyCheckRefund(msg.sender, refundAmount);\r\n            return;\r\n        }\r\n        \r\n        address donorAddress = msg.sender;\r\n        bytes32 voucherKey = keccak256(abi.encodePacked(donorAddress, contractAddress));\r\n        \r\n        uint currentBalance = contractVouchersDonorBalance[voucherKey];\r\n        contractVouchersDonorBalance[voucherKey] = SafeMath.add(currentBalance, msg.value);\r\n        \r\n        contractVouchersRedeemablePerUser[voucherKey] = redeemablePerUser;\r\n    }\r\n    \r\n    function claimRefundedEther() public {\r\n        uint amount = pendingRefunds[msg.sender];\r\n        pendingRefunds[msg.sender] = 0;\r\n        msg.sender.transfer(amount);\r\n    }\r\n    \r\n    function withdrawContractVouchers(address contractAddress, uint withdrawAmount) public {\r\n        address donorAddress = msg.sender;\r\n        bytes32 voucherKey = keccak256(abi.encodePacked(donorAddress, contractAddress));\r\n        uint currentBalance = contractVouchersDonorBalance[voucherKey];\r\n        \r\n        require(currentBalance >= withdrawAmount && withdrawAmount > 0);\r\n        \r\n        contractVouchersDonorBalance[voucherKey] = SafeMath.sub(currentBalance, withdrawAmount);\r\n        msg.sender.transfer(withdrawAmount);\r\n    }\r\n}",
  "sourcePath": "C:\\Users\\Chance\\Desktop\\trustfund-vouchers\\contracts\\VouchersRegistry.sol",
  "compiler": {
    "name": "solc",
    "version": "0.4.24+commit.e67f0147.Emscripten.clang"
  },
  "schemaVersion": "2.0.1",
  "updatedAt": "2018-10-22T20:41:55.943Z"
}